{
  "contractName": "AnonDapp",
  "abi": [
    {
      "inputs": [
        {
          "internalType": "string",
          "name": "_name",
          "type": "string"
        },
        {
          "internalType": "string",
          "name": "_symbol",
          "type": "string"
        },
        {
          "internalType": "string",
          "name": "_initialBaseURI",
          "type": "string"
        }
      ],
      "stateMutability": "nonpayable",
      "type": "constructor"
    },
    {
      "anonymous": false,
      "inputs": [
        {
          "indexed": true,
          "internalType": "address",
          "name": "owner",
          "type": "address"
        },
        {
          "indexed": true,
          "internalType": "address",
          "name": "approved",
          "type": "address"
        },
        {
          "indexed": true,
          "internalType": "uint256",
          "name": "tokenId",
          "type": "uint256"
        }
      ],
      "name": "Approval",
      "type": "event"
    },
    {
      "anonymous": false,
      "inputs": [
        {
          "indexed": true,
          "internalType": "address",
          "name": "owner",
          "type": "address"
        },
        {
          "indexed": true,
          "internalType": "address",
          "name": "operator",
          "type": "address"
        },
        {
          "indexed": false,
          "internalType": "bool",
          "name": "approved",
          "type": "bool"
        }
      ],
      "name": "ApprovalForAll",
      "type": "event"
    },
    {
      "anonymous": false,
      "inputs": [
        {
          "indexed": true,
          "internalType": "address",
          "name": "previousOwner",
          "type": "address"
        },
        {
          "indexed": true,
          "internalType": "address",
          "name": "newOwner",
          "type": "address"
        }
      ],
      "name": "OwnershipTransferred",
      "type": "event"
    },
    {
      "anonymous": false,
      "inputs": [
        {
          "indexed": true,
          "internalType": "address",
          "name": "from",
          "type": "address"
        },
        {
          "indexed": true,
          "internalType": "address",
          "name": "to",
          "type": "address"
        },
        {
          "indexed": true,
          "internalType": "uint256",
          "name": "tokenId",
          "type": "uint256"
        }
      ],
      "name": "Transfer",
      "type": "event"
    },
    {
      "inputs": [
        {
          "internalType": "address",
          "name": "",
          "type": "address"
        }
      ],
      "name": "addressToMintBalance",
      "outputs": [
        {
          "internalType": "uint256",
          "name": "",
          "type": "uint256"
        }
      ],
      "stateMutability": "view",
      "type": "function",
      "constant": true
    },
    {
      "inputs": [
        {
          "internalType": "address",
          "name": "to",
          "type": "address"
        },
        {
          "internalType": "uint256",
          "name": "tokenId",
          "type": "uint256"
        }
      ],
      "name": "approve",
      "outputs": [],
      "stateMutability": "nonpayable",
      "type": "function"
    },
    {
      "inputs": [
        {
          "internalType": "address",
          "name": "owner",
          "type": "address"
        }
      ],
      "name": "balanceOf",
      "outputs": [
        {
          "internalType": "uint256",
          "name": "",
          "type": "uint256"
        }
      ],
      "stateMutability": "view",
      "type": "function",
      "constant": true
    },
    {
      "inputs": [],
      "name": "baseExtension",
      "outputs": [
        {
          "internalType": "string",
          "name": "",
          "type": "string"
        }
      ],
      "stateMutability": "view",
      "type": "function",
      "constant": true
    },
    {
      "inputs": [],
      "name": "baseURI",
      "outputs": [
        {
          "internalType": "string",
          "name": "",
          "type": "string"
        }
      ],
      "stateMutability": "view",
      "type": "function",
      "constant": true
    },
    {
      "inputs": [],
      "name": "cost",
      "outputs": [
        {
          "internalType": "uint256",
          "name": "",
          "type": "uint256"
        }
      ],
      "stateMutability": "view",
      "type": "function",
      "constant": true
    },
    {
      "inputs": [
        {
          "internalType": "uint256",
          "name": "tokenId",
          "type": "uint256"
        }
      ],
      "name": "getApproved",
      "outputs": [
        {
          "internalType": "address",
          "name": "",
          "type": "address"
        }
      ],
      "stateMutability": "view",
      "type": "function",
      "constant": true
    },
    {
      "inputs": [
        {
          "internalType": "address",
          "name": "owner",
          "type": "address"
        },
        {
          "internalType": "address",
          "name": "operator",
          "type": "address"
        }
      ],
      "name": "isApprovedForAll",
      "outputs": [
        {
          "internalType": "bool",
          "name": "",
          "type": "bool"
        }
      ],
      "stateMutability": "view",
      "type": "function",
      "constant": true
    },
    {
      "inputs": [],
      "name": "maxMintPerWalletAddress",
      "outputs": [
        {
          "internalType": "uint256",
          "name": "",
          "type": "uint256"
        }
      ],
      "stateMutability": "view",
      "type": "function",
      "constant": true
    },
    {
      "inputs": [],
      "name": "maxSupply",
      "outputs": [
        {
          "internalType": "uint256",
          "name": "",
          "type": "uint256"
        }
      ],
      "stateMutability": "view",
      "type": "function",
      "constant": true
    },
    {
      "inputs": [],
      "name": "name",
      "outputs": [
        {
          "internalType": "string",
          "name": "",
          "type": "string"
        }
      ],
      "stateMutability": "view",
      "type": "function",
      "constant": true
    },
    {
      "inputs": [],
      "name": "owner",
      "outputs": [
        {
          "internalType": "address",
          "name": "",
          "type": "address"
        }
      ],
      "stateMutability": "view",
      "type": "function",
      "constant": true
    },
    {
      "inputs": [
        {
          "internalType": "uint256",
          "name": "tokenId",
          "type": "uint256"
        }
      ],
      "name": "ownerOf",
      "outputs": [
        {
          "internalType": "address",
          "name": "",
          "type": "address"
        }
      ],
      "stateMutability": "view",
      "type": "function",
      "constant": true
    },
    {
      "inputs": [],
      "name": "paused",
      "outputs": [
        {
          "internalType": "bool",
          "name": "",
          "type": "bool"
        }
      ],
      "stateMutability": "view",
      "type": "function",
      "constant": true
    },
    {
      "inputs": [],
      "name": "presale",
      "outputs": [
        {
          "internalType": "bool",
          "name": "",
          "type": "bool"
        }
      ],
      "stateMutability": "view",
      "type": "function",
      "constant": true
    },
    {
      "inputs": [],
      "name": "renounceOwnership",
      "outputs": [],
      "stateMutability": "nonpayable",
      "type": "function"
    },
    {
      "inputs": [
        {
          "internalType": "address",
          "name": "from",
          "type": "address"
        },
        {
          "internalType": "address",
          "name": "to",
          "type": "address"
        },
        {
          "internalType": "uint256",
          "name": "tokenId",
          "type": "uint256"
        }
      ],
      "name": "safeTransferFrom",
      "outputs": [],
      "stateMutability": "nonpayable",
      "type": "function"
    },
    {
      "inputs": [
        {
          "internalType": "address",
          "name": "from",
          "type": "address"
        },
        {
          "internalType": "address",
          "name": "to",
          "type": "address"
        },
        {
          "internalType": "uint256",
          "name": "tokenId",
          "type": "uint256"
        },
        {
          "internalType": "bytes",
          "name": "_data",
          "type": "bytes"
        }
      ],
      "name": "safeTransferFrom",
      "outputs": [],
      "stateMutability": "nonpayable",
      "type": "function"
    },
    {
      "inputs": [
        {
          "internalType": "address",
          "name": "operator",
          "type": "address"
        },
        {
          "internalType": "bool",
          "name": "approved",
          "type": "bool"
        }
      ],
      "name": "setApprovalForAll",
      "outputs": [],
      "stateMutability": "nonpayable",
      "type": "function"
    },
    {
      "inputs": [
        {
          "internalType": "bytes4",
          "name": "interfaceId",
          "type": "bytes4"
        }
      ],
      "name": "supportsInterface",
      "outputs": [
        {
          "internalType": "bool",
          "name": "",
          "type": "bool"
        }
      ],
      "stateMutability": "view",
      "type": "function",
      "constant": true
    },
    {
      "inputs": [],
      "name": "symbol",
      "outputs": [
        {
          "internalType": "string",
          "name": "",
          "type": "string"
        }
      ],
      "stateMutability": "view",
      "type": "function",
      "constant": true
    },
    {
      "inputs": [
        {
          "internalType": "uint256",
          "name": "tokenId",
          "type": "uint256"
        }
      ],
      "name": "tokenURI",
      "outputs": [
        {
          "internalType": "string",
          "name": "",
          "type": "string"
        }
      ],
      "stateMutability": "view",
      "type": "function",
      "constant": true
    },
    {
      "inputs": [
        {
          "internalType": "address",
          "name": "from",
          "type": "address"
        },
        {
          "internalType": "address",
          "name": "to",
          "type": "address"
        },
        {
          "internalType": "uint256",
          "name": "tokenId",
          "type": "uint256"
        }
      ],
      "name": "transferFrom",
      "outputs": [],
      "stateMutability": "nonpayable",
      "type": "function"
    },
    {
      "inputs": [
        {
          "internalType": "address",
          "name": "newOwner",
          "type": "address"
        }
      ],
      "name": "transferOwnership",
      "outputs": [],
      "stateMutability": "nonpayable",
      "type": "function"
    },
    {
      "inputs": [],
      "name": "getCost",
      "outputs": [
        {
          "internalType": "uint256",
          "name": "",
          "type": "uint256"
        }
      ],
      "stateMutability": "view",
      "type": "function",
      "constant": true
    },
    {
      "inputs": [
        {
          "internalType": "uint256",
          "name": "_cost",
          "type": "uint256"
        }
      ],
      "name": "setCost",
      "outputs": [],
      "stateMutability": "nonpayable",
      "type": "function"
    },
    {
      "inputs": [
        {
          "internalType": "uint256",
          "name": "_maxSupply",
          "type": "uint256"
        }
      ],
      "name": "setMaxSuply",
      "outputs": [],
      "stateMutability": "nonpayable",
      "type": "function"
    },
    {
      "inputs": [],
      "name": "getMaxSupply",
      "outputs": [
        {
          "internalType": "uint256",
          "name": "",
          "type": "uint256"
        }
      ],
      "stateMutability": "view",
      "type": "function",
      "constant": true
    },
    {
      "inputs": [],
      "name": "togglePaused",
      "outputs": [
        {
          "internalType": "bool",
          "name": "",
          "type": "bool"
        }
      ],
      "stateMutability": "nonpayable",
      "type": "function"
    },
    {
      "inputs": [],
      "name": "getStatus",
      "outputs": [
        {
          "internalType": "bool",
          "name": "",
          "type": "bool"
        }
      ],
      "stateMutability": "view",
      "type": "function",
      "constant": true
    },
    {
      "inputs": [],
      "name": "togglePresale",
      "outputs": [
        {
          "internalType": "bool",
          "name": "",
          "type": "bool"
        }
      ],
      "stateMutability": "nonpayable",
      "type": "function"
    },
    {
      "inputs": [],
      "name": "getPresale",
      "outputs": [
        {
          "internalType": "bool",
          "name": "",
          "type": "bool"
        }
      ],
      "stateMutability": "view",
      "type": "function",
      "constant": true
    },
    {
      "inputs": [
        {
          "internalType": "string",
          "name": "_baseExtension",
          "type": "string"
        }
      ],
      "name": "setBaseExtension",
      "outputs": [],
      "stateMutability": "nonpayable",
      "type": "function"
    },
    {
      "inputs": [],
      "name": "getBaseURI",
      "outputs": [
        {
          "internalType": "string",
          "name": "",
          "type": "string"
        }
      ],
      "stateMutability": "view",
      "type": "function",
      "constant": true
    },
    {
      "inputs": [
        {
          "internalType": "string",
          "name": "_newBaseURI",
          "type": "string"
        }
      ],
      "name": "setBaseURI",
      "outputs": [],
      "stateMutability": "nonpayable",
      "type": "function"
    },
    {
      "inputs": [],
      "name": "withdraw",
      "outputs": [],
      "stateMutability": "payable",
      "type": "function",
      "payable": true
    },
    {
      "inputs": [
        {
          "internalType": "uint256",
          "name": "_maxMintPerWalletAddress",
          "type": "uint256"
        }
      ],
      "name": "setMaxMintPerWalletAddress",
      "outputs": [],
      "stateMutability": "nonpayable",
      "type": "function"
    },
    {
      "inputs": [
        {
          "internalType": "uint256",
          "name": "tokenId",
          "type": "uint256"
        }
      ],
      "name": "getTokenURI",
      "outputs": [
        {
          "internalType": "string",
          "name": "",
          "type": "string"
        }
      ],
      "stateMutability": "view",
      "type": "function",
      "constant": true
    },
    {
      "inputs": [
        {
          "internalType": "uint256",
          "name": "_amount",
          "type": "uint256"
        }
      ],
      "name": "mint",
      "outputs": [],
      "stateMutability": "payable",
      "type": "function",
      "payable": true
    },
    {
      "inputs": [
        {
          "internalType": "address[]",
          "name": "users",
          "type": "address[]"
        }
      ],
      "name": "whitelistAddress",
      "outputs": [],
      "stateMutability": "nonpayable",
      "type": "function"
    },
    {
      "inputs": [],
      "name": "whitelisted",
      "outputs": [
        {
          "internalType": "string",
          "name": "",
          "type": "string"
        }
      ],
      "stateMutability": "view",
      "type": "function",
      "constant": true
    },
    {
      "inputs": [
        {
          "internalType": "string",
          "name": "_url",
          "type": "string"
        }
      ],
      "name": "addIdToURL",
      "outputs": [],
      "stateMutability": "nonpayable",
      "type": "function"
    }
  ],
  "bytecode": "0x60806040523480156200001157600080fd5b506040516200575038038062005750833981810160405281019062000037919062000369565b8282620000596200004d620000a760201b60201c565b620000af60201b60201c565b81600190805190602001906200007192919062000247565b5080600290805190602001906200008a92919062000247565b5050506200009e816200017360201b60201c565b505050620005fd565b600033905090565b60008060009054906101000a900473ffffffffffffffffffffffffffffffffffffffff169050816000806101000a81548173ffffffffffffffffffffffffffffffffffffffff021916908373ffffffffffffffffffffffffffffffffffffffff1602179055508173ffffffffffffffffffffffffffffffffffffffff168173ffffffffffffffffffffffffffffffffffffffff167f8be0079c531659141344cd1fd0a4f28419497f9722a3daafe3b4186f6b6457e060405160405180910390a35050565b62000183620000a760201b60201c565b73ffffffffffffffffffffffffffffffffffffffff16620001a96200021e60201b60201c565b73ffffffffffffffffffffffffffffffffffffffff161462000202576040517f08c379a0000000000000000000000000000000000000000000000000000000008152600401620001f99062000431565b60405180910390fd5b80600f90805190602001906200021a92919062000247565b5050565b60008060009054906101000a900473ffffffffffffffffffffffffffffffffffffffff16905090565b8280546200025590620004f9565b90600052602060002090601f016020900481019282620002795760008555620002c5565b82601f106200029457805160ff1916838001178555620002c5565b82800160010185558215620002c5579182015b82811115620002c4578251825591602001919060010190620002a7565b5b509050620002d49190620002d8565b5090565b5b80821115620002f3576000816000905550600101620002d9565b5090565b60006200030e62000308846200047c565b62000453565b9050828152602081018484840111156200032757600080fd5b62000334848285620004c3565b509392505050565b600082601f8301126200034e57600080fd5b815162000360848260208601620002f7565b91505092915050565b6000806000606084860312156200037f57600080fd5b600084015167ffffffffffffffff8111156200039a57600080fd5b620003a8868287016200033c565b935050602084015167ffffffffffffffff811115620003c657600080fd5b620003d4868287016200033c565b925050604084015167ffffffffffffffff811115620003f257600080fd5b62000400868287016200033c565b9150509250925092565b600062000419602083620004b2565b91506200042682620005d4565b602082019050919050565b600060208201905081810360008301526200044c816200040a565b9050919050565b60006200045f62000472565b90506200046d82826200052f565b919050565b6000604051905090565b600067ffffffffffffffff8211156200049a576200049962000594565b5b620004a582620005c3565b9050602081019050919050565b600082825260208201905092915050565b60005b83811015620004e3578082015181840152602081019050620004c6565b83811115620004f3576000848401525b50505050565b600060028204905060018216806200051257607f821691505b6020821081141562000529576200052862000565565b5b50919050565b6200053a82620005c3565b810181811067ffffffffffffffff821117156200055c576200055b62000594565b5b80604052505050565b7f4e487b7100000000000000000000000000000000000000000000000000000000600052602260045260246000fd5b7f4e487b7100000000000000000000000000000000000000000000000000000000600052604160045260246000fd5b6000601f19601f8301169050919050565b7f4f776e61626c653a2063616c6c6572206973206e6f7420746865206f776e6572600082015250565b615143806200060d6000396000f3fe6080604052600436106102515760003560e01c80636c0360eb11610139578063aee99e52116100b6578063c87b56dd1161007a578063c87b56dd14610874578063d5abeb01146108b1578063da3ef23f146108dc578063e985e9c514610905578063f2fde38b14610942578063fdea8e0b1461096b57610251565b8063aee99e52146107a1578063b31d61b0146107cc578063b88d4fde146107f5578063bd3e19d41461081e578063c66828621461084957610251565b80638b78c7fc116100fd5780638b78c7fc146106db5780638da5cb5b1461070657806395d89b4114610731578063a0712d681461075c578063a22cb4651461077857610251565b80636c0360eb14610608578063704a18d61461063357806370a082311461065c578063714c539814610699578063715018a6146106c457610251565b80633bb3a24d116101d257806344a0d68a1161019657806344a0d68a146104f85780634c0f38c2146105215780634e69d5601461054c57806355f804b3146105775780635c975abb146105a05780636352211e146105cb57610251565b80633bb3a24d146104345780633ccfd60b146104715780633d9287fa1461047b5780633fa198bb146104a657806342842e0e146104cf57610251565b806313faede61161021957806313faede6146103615780631bf16d6e1461038c57806323b872dd146103b557806334393743146103de57806336566f061461040957610251565b806301ffc9a71461025657806306fdde0314610293578063081812fc146102be578063095ea7b3146102fb5780630e21555214610324575b600080fd5b34801561026257600080fd5b5061027d60048036038101906102789190613aae565b610996565b60405161028a919061408b565b60405180910390f35b34801561029f57600080fd5b506102a8610a78565b6040516102b591906140a6565b60405180910390f35b3480156102ca57600080fd5b506102e560048036038101906102e09190613b41565b610b0a565b6040516102f29190614024565b60405180910390f35b34801561030757600080fd5b50610322600480360381019061031d9190613a31565b610b8f565b005b34801561033057600080fd5b5061034b600480360381019061034691906138c6565b610ca7565b6040516103589190614408565b60405180910390f35b34801561036d57600080fd5b50610376610cbf565b6040516103839190614408565b60405180910390f35b34801561039857600080fd5b506103b360048036038101906103ae9190613b00565b610cc5565b005b3480156103c157600080fd5b506103dc60048036038101906103d7919061392b565b610dca565b005b3480156103ea57600080fd5b506103f3610e2a565b604051610400919061408b565b60405180910390f35b34801561041557600080fd5b5061041e610ed9565b60405161042b919061408b565b60405180910390f35b34801561044057600080fd5b5061045b60048036038101906104569190613b41565b610f88565b60405161046891906140a6565b60405180910390f35b610479611080565b005b34801561048757600080fd5b50610490611175565b60405161049d91906140a6565b60405180910390f35b3480156104b257600080fd5b506104cd60048036038101906104c89190613b41565b6112be565b005b3480156104db57600080fd5b506104f660048036038101906104f1919061392b565b611344565b005b34801561050457600080fd5b5061051f600480360381019061051a9190613b41565b611364565b005b34801561052d57600080fd5b506105366113f6565b6040516105439190614408565b60405180910390f35b34801561055857600080fd5b50610561611400565b60405161056e919061408b565b60405180910390f35b34801561058357600080fd5b5061059e60048036038101906105999190613b00565b611417565b005b3480156105ac57600080fd5b506105b56114ad565b6040516105c2919061408b565b60405180910390f35b3480156105d757600080fd5b506105f260048036038101906105ed9190613b41565b6114c0565b6040516105ff9190614024565b60405180910390f35b34801561061457600080fd5b5061061d611572565b60405161062a91906140a6565b60405180910390f35b34801561063f57600080fd5b5061065a60048036038101906106559190613b41565b611600565b005b34801561066857600080fd5b50610683600480360381019061067e91906138c6565b611686565b6040516106909190614408565b60405180910390f35b3480156106a557600080fd5b506106ae61173e565b6040516106bb91906140a6565b60405180910390f35b3480156106d057600080fd5b506106d96117d0565b005b3480156106e757600080fd5b506106f0611858565b6040516106fd9190614408565b60405180910390f35b34801561071257600080fd5b5061071b61185e565b6040516107289190614024565b60405180910390f35b34801561073d57600080fd5b50610746611887565b60405161075391906140a6565b60405180910390f35b61077660048036038101906107719190613b41565b611919565b005b34801561078457600080fd5b5061079f600480360381019061079a91906139f5565b612281565b005b3480156107ad57600080fd5b506107b6612402565b6040516107c3919061408b565b60405180910390f35b3480156107d857600080fd5b506107f360048036038101906107ee9190613a6d565b612419565b005b34801561080157600080fd5b5061081c6004803603810190610817919061397a565b612550565b005b34801561082a57600080fd5b506108336125b2565b6040516108409190614408565b60405180910390f35b34801561085557600080fd5b5061085e6125c8565b60405161086b91906140a6565b60405180910390f35b34801561088057600080fd5b5061089b60048036038101906108969190613b41565b612656565b6040516108a891906140a6565b60405180910390f35b3480156108bd57600080fd5b506108c66127a8565b6040516108d39190614408565b60405180910390f35b3480156108e857600080fd5b5061090360048036038101906108fe9190613b00565b6127ae565b005b34801561091157600080fd5b5061092c600480360381019061092791906138ef565b612844565b604051610939919061408b565b60405180910390f35b34801561094e57600080fd5b50610969600480360381019061096491906138c6565b6128d8565b005b34801561097757600080fd5b506109806129d0565b60405161098d919061408b565b60405180910390f35b60007f80ac58cd000000000000000000000000000000000000000000000000000000007bffffffffffffffffffffffffffffffffffffffffffffffffffffffff1916827bffffffffffffffffffffffffffffffffffffffffffffffffffffffff19161480610a6157507f5b5e139f000000000000000000000000000000000000000000000000000000007bffffffffffffffffffffffffffffffffffffffffffffffffffffffff1916827bffffffffffffffffffffffffffffffffffffffffffffffffffffffff1916145b80610a715750610a70826129e3565b5b9050919050565b606060018054610a879061486d565b80601f0160208091040260200160405190810160405280929190818152602001828054610ab39061486d565b8015610b005780601f10610ad557610100808354040283529160200191610b00565b820191906000526020600020905b815481529060010190602001808311610ae357829003601f168201915b5050505050905090565b6000610b1582612a4d565b610b54576040517f08c379a0000000000000000000000000000000000000000000000000000000008152600401610b4b906142e8565b60405180910390fd5b6005600083815260200190815260200160002060009054906101000a900473ffffffffffffffffffffffffffffffffffffffff169050919050565b6000610b9a826114c0565b90508073ffffffffffffffffffffffffffffffffffffffff168373ffffffffffffffffffffffffffffffffffffffff161415610c0b576040517f08c379a0000000000000000000000000000000000000000000000000000000008152600401610c02906143a8565b60405180910390fd5b8073ffffffffffffffffffffffffffffffffffffffff16610c2a612ab9565b73ffffffffffffffffffffffffffffffffffffffff161480610c595750610c5881610c53612ab9565b612844565b5b610c98576040517f08c379a0000000000000000000000000000000000000000000000000000000008152600401610c8f90614228565b60405180910390fd5b610ca28383612ac1565b505050565b60106020528060005260406000206000915090505481565b600b5481565b610ccd612ab9565b73ffffffffffffffffffffffffffffffffffffffff16610ceb61185e565b73ffffffffffffffffffffffffffffffffffffffff1614610d41576040517f08c379a0000000000000000000000000000000000000000000000000000000008152600401610d3890614328565b60405180910390fd5b610d4b6009612b7a565b6000610d576009612b90565b9050600a54811115610d9e576040517f08c379a0000000000000000000000000000000000000000000000000000000008152600401610d9590614168565b60405180910390fd5b81601260008381526020019081526020016000209080519060200190610dc5929190613654565b505050565b610ddb610dd5612ab9565b82612b9e565b610e1a576040517f08c379a0000000000000000000000000000000000000000000000000000000008152600401610e11906143c8565b60405180910390fd5b610e25838383612c7c565b505050565b6000610e34612ab9565b73ffffffffffffffffffffffffffffffffffffffff16610e5261185e565b73ffffffffffffffffffffffffffffffffffffffff1614610ea8576040517f08c379a0000000000000000000000000000000000000000000000000000000008152600401610e9f90614328565b60405180910390fd5b600d60019054906101000a900460ff1615600d60016101000a81548160ff0219169083151502179055506001905090565b6000610ee3612ab9565b73ffffffffffffffffffffffffffffffffffffffff16610f0161185e565b73ffffffffffffffffffffffffffffffffffffffff1614610f57576040517f08c379a0000000000000000000000000000000000000000000000000000000008152600401610f4e90614328565b60405180910390fd5b600d60009054906101000a900460ff1615600d60006101000a81548160ff0219169083151502179055506001905090565b60606000610f94612ed8565b90506000601260008581526020019081526020016000208054610fb69061486d565b80601f0160208091040260200160405190810160405280929190818152602001828054610fe29061486d565b801561102f5780601f106110045761010080835404028352916020019161102f565b820191906000526020600020905b81548152906001019060200180831161101257829003601f168201915b5050505050905060008251116110545760405180602001604052806000815250611077565b8181604051602001611067929190613feb565b6040516020818303038152906040525b92505050919050565b611088612ab9565b73ffffffffffffffffffffffffffffffffffffffff166110a661185e565b73ffffffffffffffffffffffffffffffffffffffff16146110fc576040517f08c379a00000000000000000000000000000000000000000000000000000000081526004016110f390614328565b60405180910390fd5b60003373ffffffffffffffffffffffffffffffffffffffff16476040516111229061400f565b60006040518083038185875af1925050503d806000811461115f576040519150601f19603f3d011682016040523d82523d6000602084013e611164565b606091505b505090508061117257600080fd5b50565b606061117f61185e565b73ffffffffffffffffffffffffffffffffffffffff163373ffffffffffffffffffffffffffffffffffffffff1614156111ef576040518060400160405280601b81526020017f4f776e657220697320616c776179732077686974656c6973746564000000000081525090506112bb565b60011515601160003373ffffffffffffffffffffffffffffffffffffffff1673ffffffffffffffffffffffffffffffffffffffff16815260200190815260200160002060009054906101000a900460ff16151514611282576040517f08c379a000000000000000000000000000000000000000000000000000000000815260040161127990614188565b60405180910390fd5b6040518060400160405280601381526020017f596f75206172652077686974656c69737465640000000000000000000000000081525090505b90565b6112c6612ab9565b73ffffffffffffffffffffffffffffffffffffffff166112e461185e565b73ffffffffffffffffffffffffffffffffffffffff161461133a576040517f08c379a000000000000000000000000000000000000000000000000000000000815260040161133190614328565b60405180910390fd5b80600c8190555050565b61135f83838360405180602001604052806000815250612550565b505050565b61136c612ab9565b73ffffffffffffffffffffffffffffffffffffffff1661138a61185e565b73ffffffffffffffffffffffffffffffffffffffff16146113e0576040517f08c379a00000000000000000000000000000000000000000000000000000000081526004016113d790614328565b60405180910390fd5b600a816113ed919061457a565b600b8190555050565b6000600a54905090565b6000600d60009054906101000a900460ff16905090565b61141f612ab9565b73ffffffffffffffffffffffffffffffffffffffff1661143d61185e565b73ffffffffffffffffffffffffffffffffffffffff1614611493576040517f08c379a000000000000000000000000000000000000000000000000000000000815260040161148a90614328565b60405180910390fd5b80600f90805190602001906114a9929190613654565b5050565b600d60009054906101000a900460ff1681565b6000806003600084815260200190815260200160002060009054906101000a900473ffffffffffffffffffffffffffffffffffffffff169050600073ffffffffffffffffffffffffffffffffffffffff168173ffffffffffffffffffffffffffffffffffffffff161415611569576040517f08c379a000000000000000000000000000000000000000000000000000000000815260040161156090614268565b60405180910390fd5b80915050919050565b600f805461157f9061486d565b80601f01602080910402602001604051908101604052809291908181526020018280546115ab9061486d565b80156115f85780601f106115cd576101008083540402835291602001916115f8565b820191906000526020600020905b8154815290600101906020018083116115db57829003601f168201915b505050505081565b611608612ab9565b73ffffffffffffffffffffffffffffffffffffffff1661162661185e565b73ffffffffffffffffffffffffffffffffffffffff161461167c576040517f08c379a000000000000000000000000000000000000000000000000000000000815260040161167390614328565b60405180910390fd5b80600a8190555050565b60008073ffffffffffffffffffffffffffffffffffffffff168273ffffffffffffffffffffffffffffffffffffffff1614156116f7576040517f08c379a00000000000000000000000000000000000000000000000000000000081526004016116ee90614248565b60405180910390fd5b600460008373ffffffffffffffffffffffffffffffffffffffff1673ffffffffffffffffffffffffffffffffffffffff168152602001908152602001600020549050919050565b6060600f805461174d9061486d565b80601f01602080910402602001604051908101604052809291908181526020018280546117799061486d565b80156117c65780601f1061179b576101008083540402835291602001916117c6565b820191906000526020600020905b8154815290600101906020018083116117a957829003601f168201915b5050505050905090565b6117d8612ab9565b73ffffffffffffffffffffffffffffffffffffffff166117f661185e565b73ffffffffffffffffffffffffffffffffffffffff161461184c576040517f08c379a000000000000000000000000000000000000000000000000000000000815260040161184390614328565b60405180910390fd5b6118566000612eef565b565b600c5481565b60008060009054906101000a900473ffffffffffffffffffffffffffffffffffffffff16905090565b6060600280546118969061486d565b80601f01602080910402602001604051908101604052809291908181526020018280546118c29061486d565b801561190f5780601f106118e45761010080835404028352916020019161190f565b820191906000526020600020905b8154815290600101906020018083116118f257829003601f168201915b5050505050905090565b600d60009054906101000a900460ff1615611969576040517f08c379a0000000000000000000000000000000000000000000000000000000008152600401611960906140e8565b60405180910390fd5b600081116119ac576040517f08c379a00000000000000000000000000000000000000000000000000000000081526004016119a3906140c8565b60405180910390fd5b600c548111156119f1576040517f08c379a00000000000000000000000000000000000000000000000000000000081526004016119e890614208565b60405180910390fd5b600a5481601060003373ffffffffffffffffffffffffffffffffffffffff1673ffffffffffffffffffffffffffffffffffffffff16815260200190815260200160002054611a3f9190614524565b10611a7f576040517f08c379a0000000000000000000000000000000000000000000000000000000008152600401611a76906143e8565b60405180910390fd5b600c5481601060003373ffffffffffffffffffffffffffffffffffffffff1673ffffffffffffffffffffffffffffffffffffffff16815260200190815260200160002054611acd9190614524565b10611b0d576040517f08c379a0000000000000000000000000000000000000000000000000000000008152600401611b04906143e8565b60405180910390fd5b600a54611b1a6008612b90565b10611b5a576040517f08c379a0000000000000000000000000000000000000000000000000000000008152600401611b51906143e8565b60405180910390fd5b600d60019054906101000a900460ff1615611f4257611b7761185e565b73ffffffffffffffffffffffffffffffffffffffff163373ffffffffffffffffffffffffffffffffffffffff1614611dd85760011515601160003373ffffffffffffffffffffffffffffffffffffffff1673ffffffffffffffffffffffffffffffffffffffff16815260200190815260200160002060009054906101000a900460ff16151514611c3c576040517f08c379a0000000000000000000000000000000000000000000000000000000008152600401611c3390614388565b60405180910390fd5b80600b54611c4a919061471c565b341015611c8c576040517f08c379a0000000000000000000000000000000000000000000000000000000008152600401611c8390614308565b60405180910390fd5b60005b81811015611dd257611ca16008612b7a565b6000611cad6008612b90565b9050611cb93382612fb3565b611d5e81601260008481526020019081526020016000208054611cdb9061486d565b80601f0160208091040260200160405190810160405280929190818152602001828054611d079061486d565b8015611d545780601f10611d2957610100808354040283529160200191611d54565b820191906000526020600020905b815481529060010190602001808311611d3757829003601f168201915b5050505050613181565b611d69336001612281565b601060003373ffffffffffffffffffffffffffffffffffffffff1673ffffffffffffffffffffffffffffffffffffffff1681526020019081526020016000206000815480929190611db9906148d0565b9190505550508080611dca906148d0565b915050611c8f565b50611f3d565b611de061185e565b73ffffffffffffffffffffffffffffffffffffffff163373ffffffffffffffffffffffffffffffffffffffff161415611f3c57611e1d6008612b7a565b6000611e296008612b90565b9050611e353382612fb3565b611eda81601260008481526020019081526020016000208054611e579061486d565b80601f0160208091040260200160405190810160405280929190818152602001828054611e839061486d565b8015611ed05780601f10611ea557610100808354040283529160200191611ed0565b820191906000526020600020905b815481529060010190602001808311611eb357829003601f168201915b5050505050613181565b611ee5336001612281565b601060003373ffffffffffffffffffffffffffffffffffffffff1673ffffffffffffffffffffffffffffffffffffffff1681526020019081526020016000206000815480929190611f35906148d0565b9190505550505b5b61227e565b611f4a61185e565b73ffffffffffffffffffffffffffffffffffffffff163373ffffffffffffffffffffffffffffffffffffffff16146121185780600b54611f8a919061471c565b341015611fcc576040517f08c379a0000000000000000000000000000000000000000000000000000000008152600401611fc390614308565b60405180910390fd5b60005b8181101561211257611fe16008612b7a565b6000611fed6008612b90565b9050611ff93382612fb3565b61209e8160126000848152602001908152602001600020805461201b9061486d565b80601f01602080910402602001604051908101604052809291908181526020018280546120479061486d565b80156120945780601f1061206957610100808354040283529160200191612094565b820191906000526020600020905b81548152906001019060200180831161207757829003601f168201915b5050505050613181565b6120a9336001612281565b601060003373ffffffffffffffffffffffffffffffffffffffff1673ffffffffffffffffffffffffffffffffffffffff16815260200190815260200160002060008154809291906120f9906148d0565b919050555050808061210a906148d0565b915050611fcf565b5061227d565b61212061185e565b73ffffffffffffffffffffffffffffffffffffffff163373ffffffffffffffffffffffffffffffffffffffff16141561227c5761215d6008612b7a565b60006121696008612b90565b90506121753382612fb3565b61221a816012600084815260200190815260200160002080546121979061486d565b80601f01602080910402602001604051908101604052809291908181526020018280546121c39061486d565b80156122105780601f106121e557610100808354040283529160200191612210565b820191906000526020600020905b8154815290600101906020018083116121f357829003601f168201915b5050505050613181565b612225336001612281565b601060003373ffffffffffffffffffffffffffffffffffffffff1673ffffffffffffffffffffffffffffffffffffffff1681526020019081526020016000206000815480929190612275906148d0565b9190505550505b5b5b50565b612289612ab9565b73ffffffffffffffffffffffffffffffffffffffff168273ffffffffffffffffffffffffffffffffffffffff1614156122f7576040517f08c379a00000000000000000000000000000000000000000000000000000000081526004016122ee906141c8565b60405180910390fd5b8060066000612304612ab9565b73ffffffffffffffffffffffffffffffffffffffff1673ffffffffffffffffffffffffffffffffffffffff16815260200190815260200160002060008473ffffffffffffffffffffffffffffffffffffffff1673ffffffffffffffffffffffffffffffffffffffff16815260200190815260200160002060006101000a81548160ff0219169083151502179055508173ffffffffffffffffffffffffffffffffffffffff166123b1612ab9565b73ffffffffffffffffffffffffffffffffffffffff167f17307eab39ab6107e8899845ad3d59bd9653f200f220920489ca2b5937696c31836040516123f6919061408b565b60405180910390a35050565b6000600d60019054906101000a900460ff16905090565b612421612ab9565b73ffffffffffffffffffffffffffffffffffffffff1661243f61185e565b73ffffffffffffffffffffffffffffffffffffffff1614612495576040517f08c379a000000000000000000000000000000000000000000000000000000000815260040161248c90614328565b60405180910390fd5b60005b815181101561254c576001601160008484815181106124e0577f4e487b7100000000000000000000000000000000000000000000000000000000600052603260045260246000fd5b602002602001015173ffffffffffffffffffffffffffffffffffffffff1673ffffffffffffffffffffffffffffffffffffffff16815260200190815260200160002060006101000a81548160ff0219169083151502179055508080612544906148d0565b915050612498565b5050565b61256161255b612ab9565b83612b9e565b6125a0576040517f08c379a0000000000000000000000000000000000000000000000000000000008152600401612597906143c8565b60405180910390fd5b6125ac848484846131f5565b50505050565b60006012600b546125c391906145fe565b905090565b600e80546125d59061486d565b80601f01602080910402602001604051908101604052809291908181526020018280546126019061486d565b801561264e5780601f106126235761010080835404028352916020019161264e565b820191906000526020600020905b81548152906001019060200180831161263157829003601f168201915b505050505081565b606061266182612a4d565b6126a0576040517f08c379a0000000000000000000000000000000000000000000000000000000008152600401612697906142c8565b60405180910390fd5b60006007600084815260200190815260200160002080546126c09061486d565b80601f01602080910402602001604051908101604052809291908181526020018280546126ec9061486d565b80156127395780601f1061270e57610100808354040283529160200191612739565b820191906000526020600020905b81548152906001019060200180831161271c57829003601f168201915b50505050509050600061274a612ed8565b90506000815114156127605781925050506127a3565b60008251111561279557808260405160200161277d929190613feb565b604051602081830303815290604052925050506127a3565b61279e84613251565b925050505b919050565b600a5481565b6127b6612ab9565b73ffffffffffffffffffffffffffffffffffffffff166127d461185e565b73ffffffffffffffffffffffffffffffffffffffff161461282a576040517f08c379a000000000000000000000000000000000000000000000000000000000815260040161282190614328565b60405180910390fd5b80600e9080519060200190612840929190613654565b5050565b6000600660008473ffffffffffffffffffffffffffffffffffffffff1673ffffffffffffffffffffffffffffffffffffffff16815260200190815260200160002060008373ffffffffffffffffffffffffffffffffffffffff1673ffffffffffffffffffffffffffffffffffffffff16815260200190815260200160002060009054906101000a900460ff16905092915050565b6128e0612ab9565b73ffffffffffffffffffffffffffffffffffffffff166128fe61185e565b73ffffffffffffffffffffffffffffffffffffffff1614612954576040517f08c379a000000000000000000000000000000000000000000000000000000000815260040161294b90614328565b60405180910390fd5b600073ffffffffffffffffffffffffffffffffffffffff168173ffffffffffffffffffffffffffffffffffffffff1614156129c4576040517f08c379a00000000000000000000000000000000000000000000000000000000081526004016129bb90614128565b60405180910390fd5b6129cd81612eef565b50565b600d60019054906101000a900460ff1681565b60007f01ffc9a7000000000000000000000000000000000000000000000000000000007bffffffffffffffffffffffffffffffffffffffffffffffffffffffff1916827bffffffffffffffffffffffffffffffffffffffffffffffffffffffff1916149050919050565b60008073ffffffffffffffffffffffffffffffffffffffff166003600084815260200190815260200160002060009054906101000a900473ffffffffffffffffffffffffffffffffffffffff1673ffffffffffffffffffffffffffffffffffffffff1614159050919050565b600033905090565b816005600083815260200190815260200160002060006101000a81548173ffffffffffffffffffffffffffffffffffffffff021916908373ffffffffffffffffffffffffffffffffffffffff160217905550808273ffffffffffffffffffffffffffffffffffffffff16612b34836114c0565b73ffffffffffffffffffffffffffffffffffffffff167f8c5be1e5ebec7d5bd14f71427d1e84f3dd0314c0f7b2291e5b200ac8c7c3b92560405160405180910390a45050565b6001816000016000828254019250508190555050565b600081600001549050919050565b6000612ba982612a4d565b612be8576040517f08c379a0000000000000000000000000000000000000000000000000000000008152600401612bdf906141e8565b60405180910390fd5b6000612bf3836114c0565b90508073ffffffffffffffffffffffffffffffffffffffff168473ffffffffffffffffffffffffffffffffffffffff161480612c6257508373ffffffffffffffffffffffffffffffffffffffff16612c4a84610b0a565b73ffffffffffffffffffffffffffffffffffffffff16145b80612c735750612c728185612844565b5b91505092915050565b8273ffffffffffffffffffffffffffffffffffffffff16612c9c826114c0565b73ffffffffffffffffffffffffffffffffffffffff1614612cf2576040517f08c379a0000000000000000000000000000000000000000000000000000000008152600401612ce990614348565b60405180910390fd5b600073ffffffffffffffffffffffffffffffffffffffff168273ffffffffffffffffffffffffffffffffffffffff161415612d62576040517f08c379a0000000000000000000000000000000000000000000000000000000008152600401612d59906141a8565b60405180910390fd5b612d6d8383836132f8565b612d78600082612ac1565b6001600460008573ffffffffffffffffffffffffffffffffffffffff1673ffffffffffffffffffffffffffffffffffffffff1681526020019081526020016000206000828254612dc89190614776565b925050819055506001600460008473ffffffffffffffffffffffffffffffffffffffff1673ffffffffffffffffffffffffffffffffffffffff1681526020019081526020016000206000828254612e1f9190614524565b92505081905550816003600083815260200190815260200160002060006101000a81548173ffffffffffffffffffffffffffffffffffffffff021916908373ffffffffffffffffffffffffffffffffffffffff160217905550808273ffffffffffffffffffffffffffffffffffffffff168473ffffffffffffffffffffffffffffffffffffffff167fddf252ad1be2c89b69c2b068fc378daa952ba7f163c4a11628f55a4df523b3ef60405160405180910390a4505050565b606060405180602001604052806000815250905090565b60008060009054906101000a900473ffffffffffffffffffffffffffffffffffffffff169050816000806101000a81548173ffffffffffffffffffffffffffffffffffffffff021916908373ffffffffffffffffffffffffffffffffffffffff1602179055508173ffffffffffffffffffffffffffffffffffffffff168173ffffffffffffffffffffffffffffffffffffffff167f8be0079c531659141344cd1fd0a4f28419497f9722a3daafe3b4186f6b6457e060405160405180910390a35050565b600073ffffffffffffffffffffffffffffffffffffffff168273ffffffffffffffffffffffffffffffffffffffff161415613023576040517f08c379a000000000000000000000000000000000000000000000000000000000815260040161301a906142a8565b60405180910390fd5b61302c81612a4d565b1561306c576040517f08c379a000000000000000000000000000000000000000000000000000000000815260040161306390614148565b60405180910390fd5b613078600083836132f8565b6001600460008473ffffffffffffffffffffffffffffffffffffffff1673ffffffffffffffffffffffffffffffffffffffff16815260200190815260200160002060008282546130c89190614524565b92505081905550816003600083815260200190815260200160002060006101000a81548173ffffffffffffffffffffffffffffffffffffffff021916908373ffffffffffffffffffffffffffffffffffffffff160217905550808273ffffffffffffffffffffffffffffffffffffffff16600073ffffffffffffffffffffffffffffffffffffffff167fddf252ad1be2c89b69c2b068fc378daa952ba7f163c4a11628f55a4df523b3ef60405160405180910390a45050565b61318a82612a4d565b6131c9576040517f08c379a00000000000000000000000000000000000000000000000000000000081526004016131c090614288565b60405180910390fd5b806007600084815260200190815260200160002090805190602001906131f0929190613654565b505050565b613200848484612c7c565b61320c848484846132fd565b61324b576040517f08c379a000000000000000000000000000000000000000000000000000000000815260040161324290614108565b60405180910390fd5b50505050565b606061325c82612a4d565b61329b576040517f08c379a000000000000000000000000000000000000000000000000000000000815260040161329290614368565b60405180910390fd5b60006132a5612ed8565b905060008151116132c557604051806020016040528060008152506132f0565b806132cf84613494565b6040516020016132e0929190613feb565b6040516020818303038152906040525b915050919050565b505050565b600061331e8473ffffffffffffffffffffffffffffffffffffffff16613641565b15613487578373ffffffffffffffffffffffffffffffffffffffff1663150b7a02613347612ab9565b8786866040518563ffffffff1660e01b8152600401613369949392919061403f565b602060405180830381600087803b15801561338357600080fd5b505af19250505080156133b457506040513d601f19601f820116820180604052508101906133b19190613ad7565b60015b613437573d80600081146133e4576040519150601f19603f3d011682016040523d82523d6000602084013e6133e9565b606091505b5060008151141561342f576040517f08c379a000000000000000000000000000000000000000000000000000000000815260040161342690614108565b60405180910390fd5b805181602001fd5b63150b7a0260e01b7bffffffffffffffffffffffffffffffffffffffffffffffffffffffff1916817bffffffffffffffffffffffffffffffffffffffffffffffffffffffff19161491505061348c565b600190505b949350505050565b606060008214156134dc576040518060400160405280600181526020017f3000000000000000000000000000000000000000000000000000000000000000815250905061363c565b600082905060005b6000821461350e5780806134f7906148d0565b915050600a82613507919061457a565b91506134e4565b60008167ffffffffffffffff811115613550577f4e487b7100000000000000000000000000000000000000000000000000000000600052604160045260246000fd5b6040519080825280601f01601f1916602001820160405280156135825781602001600182028036833780820191505090505b5090505b600085146136355760018261359b9190614776565b9150600a856135aa9190614919565b60306135b69190614524565b60f81b8183815181106135f2577f4e487b7100000000000000000000000000000000000000000000000000000000600052603260045260246000fd5b60200101907effffffffffffffffffffffffffffffffffffffffffffffffffffffffffffff1916908160001a905350600a8561362e919061457a565b9450613586565b8093505050505b919050565b600080823b905060008111915050919050565b8280546136609061486d565b90600052602060002090601f01602090048101928261368257600085556136c9565b82601f1061369b57805160ff19168380011785556136c9565b828001600101855582156136c9579182015b828111156136c85782518255916020019190600101906136ad565b5b5090506136d691906136da565b5090565b5b808211156136f35760008160009055506001016136db565b5090565b600061370a61370584614448565b614423565b9050808382526020820190508285602086028201111561372957600080fd5b60005b85811015613759578161373f88826137df565b84526020840193506020830192505060018101905061372c565b5050509392505050565b600061377661377184614474565b614423565b90508281526020810184848401111561378e57600080fd5b61379984828561482b565b509392505050565b60006137b46137af846144a5565b614423565b9050828152602081018484840111156137cc57600080fd5b6137d784828561482b565b509392505050565b6000813590506137ee816150b1565b92915050565b600082601f83011261380557600080fd5b81356138158482602086016136f7565b91505092915050565b60008135905061382d816150c8565b92915050565b600081359050613842816150df565b92915050565b600081519050613857816150df565b92915050565b600082601f83011261386e57600080fd5b813561387e848260208601613763565b91505092915050565b600082601f83011261389857600080fd5b81356138a88482602086016137a1565b91505092915050565b6000813590506138c0816150f6565b92915050565b6000602082840312156138d857600080fd5b60006138e6848285016137df565b91505092915050565b6000806040838503121561390257600080fd5b6000613910858286016137df565b9250506020613921858286016137df565b9150509250929050565b60008060006060848603121561394057600080fd5b600061394e868287016137df565b935050602061395f868287016137df565b9250506040613970868287016138b1565b9150509250925092565b6000806000806080858703121561399057600080fd5b600061399e878288016137df565b94505060206139af878288016137df565b93505060406139c0878288016138b1565b925050606085013567ffffffffffffffff8111156139dd57600080fd5b6139e98782880161385d565b91505092959194509250565b60008060408385031215613a0857600080fd5b6000613a16858286016137df565b9250506020613a278582860161381e565b9150509250929050565b60008060408385031215613a4457600080fd5b6000613a52858286016137df565b9250506020613a63858286016138b1565b9150509250929050565b600060208284031215613a7f57600080fd5b600082013567ffffffffffffffff811115613a9957600080fd5b613aa5848285016137f4565b91505092915050565b600060208284031215613ac057600080fd5b6000613ace84828501613833565b91505092915050565b600060208284031215613ae957600080fd5b6000613af784828501613848565b91505092915050565b600060208284031215613b1257600080fd5b600082013567ffffffffffffffff811115613b2c57600080fd5b613b3884828501613887565b91505092915050565b600060208284031215613b5357600080fd5b6000613b61848285016138b1565b91505092915050565b613b73816147aa565b82525050565b613b82816147bc565b82525050565b6000613b93826144d6565b613b9d81856144ec565b9350613bad81856020860161483a565b613bb681614a06565b840191505092915050565b6000613bcc826144e1565b613bd68185614508565b9350613be681856020860161483a565b613bef81614a06565b840191505092915050565b6000613c05826144e1565b613c0f8185614519565b9350613c1f81856020860161483a565b80840191505092915050565b6000613c38602883614508565b9150613c4382614a24565b604082019050919050565b6000613c5b601c83614508565b9150613c6682614a73565b602082019050919050565b6000613c7e603283614508565b9150613c8982614a9c565b604082019050919050565b6000613ca1602683614508565b9150613cac82614aeb565b604082019050919050565b6000613cc4601c83614508565b9150613ccf82614b3a565b602082019050919050565b6000613ce7601f83614508565b9150613cf282614b63565b602082019050919050565b6000613d0a601883614508565b9150613d1582614b8c565b602082019050919050565b6000613d2d602483614508565b9150613d3882614bb5565b604082019050919050565b6000613d50601983614508565b9150613d5b82614c04565b602082019050919050565b6000613d73602c83614508565b9150613d7e82614c2d565b604082019050919050565b6000613d96602083614508565b9150613da182614c7c565b602082019050919050565b6000613db9603883614508565b9150613dc482614ca5565b604082019050919050565b6000613ddc602a83614508565b9150613de782614cf4565b604082019050919050565b6000613dff602983614508565b9150613e0a82614d43565b604082019050919050565b6000613e22602e83614508565b9150613e2d82614d92565b604082019050919050565b6000613e45602083614508565b9150613e5082614de1565b602082019050919050565b6000613e68603183614508565b9150613e7382614e0a565b604082019050919050565b6000613e8b602c83614508565b9150613e9682614e59565b604082019050919050565b6000613eae602383614508565b9150613eb982614ea8565b604082019050919050565b6000613ed1602083614508565b9150613edc82614ef7565b602082019050919050565b6000613ef4602983614508565b9150613eff82614f20565b604082019050919050565b6000613f17602f83614508565b9150613f2282614f6f565b604082019050919050565b6000613f3a601783614508565b9150613f4582614fbe565b602082019050919050565b6000613f5d602183614508565b9150613f6882614fe7565b604082019050919050565b6000613f806000836144fd565b9150613f8b82615036565b600082019050919050565b6000613fa3603183614508565b9150613fae82615039565b604082019050919050565b6000613fc6601383614508565b9150613fd182615088565b602082019050919050565b613fe581614814565b82525050565b6000613ff78285613bfa565b91506140038284613bfa565b91508190509392505050565b600061401a82613f73565b9150819050919050565b60006020820190506140396000830184613b6a565b92915050565b60006080820190506140546000830187613b6a565b6140616020830186613b6a565b61406e6040830185613fdc565b81810360608301526140808184613b88565b905095945050505050565b60006020820190506140a06000830184613b79565b92915050565b600060208201905081810360008301526140c08184613bc1565b905092915050565b600060208201905081810360008301526140e181613c2b565b9050919050565b6000602082019050818103600083015261410181613c4e565b9050919050565b6000602082019050818103600083015261412181613c71565b9050919050565b6000602082019050818103600083015261414181613c94565b9050919050565b6000602082019050818103600083015261416181613cb7565b9050919050565b6000602082019050818103600083015261418181613cda565b9050919050565b600060208201905081810360008301526141a181613cfd565b9050919050565b600060208201905081810360008301526141c181613d20565b9050919050565b600060208201905081810360008301526141e181613d43565b9050919050565b6000602082019050818103600083015261420181613d66565b9050919050565b6000602082019050818103600083015261422181613d89565b9050919050565b6000602082019050818103600083015261424181613dac565b9050919050565b6000602082019050818103600083015261426181613dcf565b9050919050565b6000602082019050818103600083015261428181613df2565b9050919050565b600060208201905081810360008301526142a181613e15565b9050919050565b600060208201905081810360008301526142c181613e38565b9050919050565b600060208201905081810360008301526142e181613e5b565b9050919050565b6000602082019050818103600083015261430181613e7e565b9050919050565b6000602082019050818103600083015261432181613ea1565b9050919050565b6000602082019050818103600083015261434181613ec4565b9050919050565b6000602082019050818103600083015261436181613ee7565b9050919050565b6000602082019050818103600083015261438181613f0a565b9050919050565b600060208201905081810360008301526143a181613f2d565b9050919050565b600060208201905081810360008301526143c181613f50565b9050919050565b600060208201905081810360008301526143e181613f96565b9050919050565b6000602082019050818103600083015261440181613fb9565b9050919050565b600060208201905061441d6000830184613fdc565b92915050565b600061442d61443e565b9050614439828261489f565b919050565b6000604051905090565b600067ffffffffffffffff821115614463576144626149d7565b5b602082029050602081019050919050565b600067ffffffffffffffff82111561448f5761448e6149d7565b5b61449882614a06565b9050602081019050919050565b600067ffffffffffffffff8211156144c0576144bf6149d7565b5b6144c982614a06565b9050602081019050919050565b600081519050919050565b600081519050919050565b600082825260208201905092915050565b600081905092915050565b600082825260208201905092915050565b600081905092915050565b600061452f82614814565b915061453a83614814565b9250827fffffffffffffffffffffffffffffffffffffffffffffffffffffffffffffffff0382111561456f5761456e61494a565b5b828201905092915050565b600061458582614814565b915061459083614814565b9250826145a05761459f614979565b5b828204905092915050565b6000808291508390505b60018511156145f5578086048111156145d1576145d061494a565b5b60018516156145e05780820291505b80810290506145ee85614a17565b94506145b5565b94509492505050565b600061460982614814565b91506146148361481e565b92506146417fffffffffffffffffffffffffffffffffffffffffffffffffffffffffffffffff8484614649565b905092915050565b6000826146595760019050614715565b816146675760009050614715565b816001811461467d5760028114614687576146b6565b6001915050614715565b60ff8411156146995761469861494a565b5b8360020a9150848211156146b0576146af61494a565b5b50614715565b5060208310610133831016604e8410600b84101617156146eb5782820a9050838111156146e6576146e561494a565b5b614715565b6146f884848460016145ab565b9250905081840481111561470f5761470e61494a565b5b81810290505b9392505050565b600061472782614814565b915061473283614814565b9250817fffffffffffffffffffffffffffffffffffffffffffffffffffffffffffffffff048311821515161561476b5761476a61494a565b5b828202905092915050565b600061478182614814565b915061478c83614814565b92508282101561479f5761479e61494a565b5b828203905092915050565b60006147b5826147f4565b9050919050565b60008115159050919050565b60007fffffffff0000000000000000000000000000000000000000000000000000000082169050919050565b600073ffffffffffffffffffffffffffffffffffffffff82169050919050565b6000819050919050565b600060ff82169050919050565b82818337600083830152505050565b60005b8381101561485857808201518184015260208101905061483d565b83811115614867576000848401525b50505050565b6000600282049050600182168061488557607f821691505b60208210811415614899576148986149a8565b5b50919050565b6148a882614a06565b810181811067ffffffffffffffff821117156148c7576148c66149d7565b5b80604052505050565b60006148db82614814565b91507fffffffffffffffffffffffffffffffffffffffffffffffffffffffffffffffff82141561490e5761490d61494a565b5b600182019050919050565b600061492482614814565b915061492f83614814565b92508261493f5761493e614979565b5b828206905092915050565b7f4e487b7100000000000000000000000000000000000000000000000000000000600052601160045260246000fd5b7f4e487b7100000000000000000000000000000000000000000000000000000000600052601260045260246000fd5b7f4e487b7100000000000000000000000000000000000000000000000000000000600052602260045260246000fd5b7f4e487b7100000000000000000000000000000000000000000000000000000000600052604160045260246000fd5b6000601f19601f8301169050919050565b60008160011c9050919050565b7f496e6176616c696420496e7075742c204d757374206d696e74206174206c656160008201527f73742031204e4654000000000000000000000000000000000000000000000000602082015250565b7f436f6e74726163742069732063757272656e746c792070617573656400000000600082015250565b7f4552433732313a207472616e7366657220746f206e6f6e20455243373231526560008201527f63656976657220696d706c656d656e7465720000000000000000000000000000602082015250565b7f4f776e61626c653a206e6577206f776e657220697320746865207a65726f206160008201527f6464726573730000000000000000000000000000000000000000000000000000602082015250565b7f4552433732313a20746f6b656e20616c7265616479206d696e74656400000000600082015250565b7f4d6178696d756d20616d6f756e74206f6620546f6b656e73204d696e74656400600082015250565b7f596f7520617265206e6f742077686974656c6973746564210000000000000000600082015250565b7f4552433732313a207472616e7366657220746f20746865207a65726f2061646460008201527f7265737300000000000000000000000000000000000000000000000000000000602082015250565b7f4552433732313a20617070726f766520746f2063616c6c657200000000000000600082015250565b7f4552433732313a206f70657261746f7220717565727920666f72206e6f6e657860008201527f697374656e7420746f6b656e0000000000000000000000000000000000000000602082015250565b7f6d61784d696e7450657257616c6c657441646472657373204578636565646564600082015250565b7f4552433732313a20617070726f76652063616c6c6572206973206e6f74206f7760008201527f6e6572206e6f7220617070726f76656420666f7220616c6c0000000000000000602082015250565b7f4552433732313a2062616c616e636520717565727920666f7220746865207a6560008201527f726f206164647265737300000000000000000000000000000000000000000000602082015250565b7f4552433732313a206f776e657220717565727920666f72206e6f6e657869737460008201527f656e7420746f6b656e0000000000000000000000000000000000000000000000602082015250565b7f45524337323155524953746f726167653a2055524920736574206f66206e6f6e60008201527f6578697374656e7420746f6b656e000000000000000000000000000000000000602082015250565b7f4552433732313a206d696e7420746f20746865207a65726f2061646472657373600082015250565b7f45524337323155524953746f726167653a2055524920717565727920666f722060008201527f6e6f6e6578697374656e7420746f6b656e000000000000000000000000000000602082015250565b7f4552433732313a20617070726f76656420717565727920666f72206e6f6e657860008201527f697374656e7420746f6b656e0000000000000000000000000000000000000000602082015250565b7f43616e6e6f7420436f6d706c6574652c20496e73756666696369656e7420467560008201527f6e64730000000000000000000000000000000000000000000000000000000000602082015250565b7f4f776e61626c653a2063616c6c6572206973206e6f7420746865206f776e6572600082015250565b7f4552433732313a207472616e73666572206f6620746f6b656e2074686174206960008201527f73206e6f74206f776e0000000000000000000000000000000000000000000000602082015250565b7f4552433732314d657461646174613a2055524920717565727920666f72206e6f60008201527f6e6578697374656e7420746f6b656e0000000000000000000000000000000000602082015250565b7f41646472657373206e6f742077686974656c6973746564000000000000000000600082015250565b7f4552433732313a20617070726f76616c20746f2063757272656e74206f776e6560008201527f7200000000000000000000000000000000000000000000000000000000000000602082015250565b50565b7f4552433732313a207472616e736665722063616c6c6572206973206e6f74206f60008201527f776e6572206e6f7220617070726f766564000000000000000000000000000000602082015250565b7f416c6c204e46547320617265204d696e74656400000000000000000000000000600082015250565b6150ba816147aa565b81146150c557600080fd5b50565b6150d1816147bc565b81146150dc57600080fd5b50565b6150e8816147c8565b81146150f357600080fd5b50565b6150ff81614814565b811461510a57600080fd5b5056fea26469706673582212208d678e8382c80e52cf292bd1cfb51fbaad57e6e1d6b5b1fd7a9846388b24274564736f6c63430008030033",
  "immutableReferences": {},
  "source": "// SPDX-License-Identifier: MIT\r\npragma solidity 0.8.3;\r\n\r\nimport \"@openzeppelin/contracts/access/Ownable.sol\";\r\nimport \"@openzeppelin/contracts/token/ERC721/ERC721.sol\";\r\nimport \"@openzeppelin/contracts/utils/Counters.sol\";\r\nimport \"@openzeppelin/contracts/token/ERC721/extensions/ERC721URIStorage.sol\";\r\n\r\n\r\ncontract AnonDapp is Ownable, ERC721URIStorage {\r\n\r\n  using Counters for Counters.Counter;\r\n  Counters.Counter private _tokenIds;\r\n  Counters.Counter private _tokenURLs;\r\n    \r\n\r\n  uint256 public maxSupply;\r\n  uint256 public cost;\r\n  uint256 public maxMintPerWalletAddress;\r\n  bool public paused;\r\n  bool public presale;\r\n  string public baseExtension;\r\n  string public baseURI;\r\n  \r\n  constructor(string memory _name, string memory _symbol, string memory _initialBaseURI) ERC721(_name, _symbol) {\r\n      setBaseURI(_initialBaseURI);\r\n  }\r\n  \r\n  mapping(address => uint256) public addressToMintBalance;\r\n  mapping (address => bool) userAddr;  \r\n  mapping (uint256 => string) tokenIdToUrl;\r\n\r\n\r\n  function getCost() public view returns (uint256) {\r\n      return cost ** 18;\r\n  }\r\n  function setCost(uint256 _cost) public onlyOwner {\r\n      cost = _cost / 10;\r\n  }\r\n  \r\n  function setMaxSuply(uint256 _maxSupply) public onlyOwner {\r\n      maxSupply = _maxSupply;\r\n  }\r\n  \r\n  function getMaxSupply() public view returns (uint256) {\r\n      return maxSupply;\r\n  }\r\n  \r\n  function togglePaused() public onlyOwner returns (bool) {\r\n      paused = !paused;\r\n      return true;\r\n  }\r\n  \r\n  function getStatus() public view returns (bool) {\r\n      return paused;\r\n  }\r\n\r\n  function togglePresale() public onlyOwner returns (bool) {\r\n      presale = !presale;\r\n      return true;\r\n  }\r\n  function getPresale() public view returns (bool) {\r\n      return presale;\r\n  }\r\n  \r\n  function setBaseExtension(string memory _baseExtension) public onlyOwner {\r\n      baseExtension = _baseExtension;\r\n  }\r\n  \r\n  function getBaseURI() public view returns (string memory) {\r\n    return baseURI;\r\n  }\r\n  \r\n   function setBaseURI(string memory _newBaseURI) public onlyOwner {\r\n    baseURI = _newBaseURI;\r\n  }\r\n  \r\n   function withdraw() public payable onlyOwner {\r\n    (bool success, ) = payable(msg.sender).call{value: address(this).balance}(\"\");\r\n    require(success);\r\n  }\r\n  \r\n  function setMaxMintPerWalletAddress(uint256 _maxMintPerWalletAddress) public onlyOwner {\r\n      maxMintPerWalletAddress = _maxMintPerWalletAddress;\r\n  }\r\n\r\n  function getTokenURI(uint256 tokenId) public view returns (string memory) {\r\n    string memory base = _baseURI();\r\n    string memory url = tokenIdToUrl[tokenId];\r\n    return bytes(base).length > 0\r\n        ? string(abi.encodePacked(base, url))\r\n        : \"\";\r\n  }\r\n\r\n\r\n\r\n  function mint(uint256 _amount) public payable {\r\n    require(!paused, \"Contract is currently paused\");\r\n    require(_amount > 0, \"Inavalid Input, Must mint at least 1 NFT\");\r\n    require(_amount <= maxMintPerWalletAddress, \"maxMintPerWalletAddress Exceeded\");\r\n    require(addressToMintBalance[msg.sender] + _amount < maxSupply, \"All NFTs are Minted\");\r\n    require(addressToMintBalance[msg.sender] + _amount < maxMintPerWalletAddress, \"All NFTs are Minted\");\r\n    require(_tokenIds.current() < maxSupply, \"All NFTs are Minted\");\r\n    \r\n    if(presale){\r\n      if (msg.sender != owner()) {\r\n        require(userAddr[msg.sender] == true, \"Address not whitelisted\");\r\n        require(msg.value >= cost * _amount, \"Cannot Complete, Insufficient Funds\");\r\n        for (uint i = 0; i < _amount; i++) {\r\n            _tokenIds.increment();\r\n            uint256 newItemId = _tokenIds.current();\r\n            _mint(msg.sender, newItemId);\r\n            _setTokenURI(newItemId, tokenIdToUrl[newItemId]);\r\n            setApprovalForAll(msg.sender, true);\r\n            addressToMintBalance[msg.sender] ++;\r\n        }\r\n    }else if(msg.sender == owner()){\r\n        _tokenIds.increment();\r\n        uint256 newItemId = _tokenIds.current();\r\n        _mint(msg.sender, newItemId);\r\n        _setTokenURI(newItemId, tokenIdToUrl[newItemId]);\r\n        setApprovalForAll(msg.sender, true);\r\n        addressToMintBalance[msg.sender] ++;\r\n    }\r\n     \r\n    }else {\r\n      if (msg.sender != owner()) {\r\n        require(msg.value >= cost * _amount, \"Cannot Complete, Insufficient Funds\");\r\n        for (uint i = 0; i < _amount; i++) {\r\n            _tokenIds.increment();\r\n            uint256 newItemId = _tokenIds.current();\r\n            _mint(msg.sender, newItemId);\r\n        _setTokenURI(newItemId, tokenIdToUrl[newItemId]);\r\n        setApprovalForAll(msg.sender, true);\r\n        addressToMintBalance[msg.sender] ++;\r\n        }\r\n    }else if(msg.sender == owner()){\r\n         _tokenIds.increment();\r\n        uint256 newItemId = _tokenIds.current();\r\n        _mint(msg.sender, newItemId);\r\n        _setTokenURI(newItemId, tokenIdToUrl[newItemId]);\r\n        setApprovalForAll(msg.sender, true);\r\n        addressToMintBalance[msg.sender] ++;\r\n        }\r\n    }\r\n   \r\n  }\r\n\r\n  function whitelistAddress (address[] memory users) public onlyOwner {\r\n        for (uint i = 0; i < users.length; i++) {\r\n            userAddr[users[i]] = true;\r\n        }\r\n  }\r\n\r\n  function whitelisted() public view returns (string memory) {\r\n    if (msg.sender == owner()) {\r\n      return 'Owner is always whitelisted';\r\n    }\r\n\r\n    require(userAddr[msg.sender] == true, 'You are not whitelisted!');\r\n\r\n    return 'You are whitelisted';\r\n  }\r\n\r\n  function addIdToURL(string memory _url) public onlyOwner {\r\n    _tokenURLs.increment();\r\n    uint256 newUrl = _tokenURLs.current();\r\n    require(newUrl <= maxSupply, \"Maximum amount of Tokens Minted\");\r\n    tokenIdToUrl[newUrl] = _url;\r\n  }\r\n  \r\n}\r\n",
  "sourcePath": "C:/Users/Olzy Innovation/Desktop/Fiverr/Fuad Abdullah Telegram/AnonDapp/contracts/AnonDapp.sol",
  "compiler": {
    "name": "solc",
    "version": "0.8.3+commit.8d00100c.Emscripten.clang"
  },
  "schemaVersion": "3.3.4",
  "updatedAt": "2021-10-12T12:30:58.076Z",
  "networkType": "ethereum",
  "devdoc": {
    "kind": "dev",
    "methods": {
      "approve(address,uint256)": {
        "details": "See {IERC721-approve}."
      },
      "balanceOf(address)": {
        "details": "See {IERC721-balanceOf}."
      },
      "getApproved(uint256)": {
        "details": "See {IERC721-getApproved}."
      },
      "isApprovedForAll(address,address)": {
        "details": "See {IERC721-isApprovedForAll}."
      },
      "name()": {
        "details": "See {IERC721Metadata-name}."
      },
      "owner()": {
        "details": "Returns the address of the current owner."
      },
      "ownerOf(uint256)": {
        "details": "See {IERC721-ownerOf}."
      },
      "renounceOwnership()": {
        "details": "Leaves the contract without owner. It will not be possible to call `onlyOwner` functions anymore. Can only be called by the current owner. NOTE: Renouncing ownership will leave the contract without an owner, thereby removing any functionality that is only available to the owner."
      },
      "safeTransferFrom(address,address,uint256)": {
        "details": "See {IERC721-safeTransferFrom}."
      },
      "safeTransferFrom(address,address,uint256,bytes)": {
        "details": "See {IERC721-safeTransferFrom}."
      },
      "setApprovalForAll(address,bool)": {
        "details": "See {IERC721-setApprovalForAll}."
      },
      "supportsInterface(bytes4)": {
        "details": "See {IERC165-supportsInterface}."
      },
      "symbol()": {
        "details": "See {IERC721Metadata-symbol}."
      },
      "tokenURI(uint256)": {
        "details": "See {IERC721Metadata-tokenURI}."
      },
      "transferFrom(address,address,uint256)": {
        "details": "See {IERC721-transferFrom}."
      },
      "transferOwnership(address)": {
        "details": "Transfers ownership of the contract to a new account (`newOwner`). Can only be called by the current owner."
      }
    },
    "version": 1
  },
  "userdoc": {
    "kind": "user",
    "methods": {},
    "version": 1
  }
}